{
  "_format": "hh-sol-artifact-1",
  "contractName": "Todos",
  "sourceName": "contracts/Todos.sol",
  "abi": [
    {
      "inputs": [
        {
          "internalType": "string",
          "name": "_text",
          "type": "string"
        }
      ],
      "name": "addTodo",
      "outputs": [],
      "stateMutability": "nonpayable",
      "type": "function"
    },
    {
      "inputs": [
        {
          "internalType": "uint256",
          "name": "_index",
          "type": "uint256"
        }
      ],
      "name": "getTodo",
      "outputs": [
        {
          "components": [
            {
              "internalType": "string",
              "name": "text",
              "type": "string"
            },
            {
              "internalType": "bool",
              "name": "completed",
              "type": "bool"
            }
          ],
          "internalType": "struct Todos.Todo",
          "name": "",
          "type": "tuple"
        }
      ],
      "stateMutability": "view",
      "type": "function"
    },
    {
      "inputs": [
        {
          "internalType": "uint256",
          "name": "",
          "type": "uint256"
        }
      ],
      "name": "todos",
      "outputs": [
        {
          "internalType": "string",
          "name": "text",
          "type": "string"
        },
        {
          "internalType": "bool",
          "name": "completed",
          "type": "bool"
        }
      ],
      "stateMutability": "view",
      "type": "function"
    }
  ],
  "bytecode": "0x608060405234801561001057600080fd5b506109da806100206000396000f3fe608060405234801561001057600080fd5b50600436106100415760003560e01c806395ffebf514610046578063bc8bc2b414610062578063dd68afb614610093575b600080fd5b610060600480360381019061005b9190610469565b6100c3565b005b61007c600480360381019061007791906104e8565b610141565b60405161008a9291906105af565b60405180910390f35b6100ad60048036038101906100a891906104e8565b61020a565b6040516100ba9190610675565b60405180910390f35b60006040518060400160405280838152602001600015158152509080600181540180825580915050600190039060005260206000209060020201600090919091909150600082015181600001908161011b91906108a3565b5060208201518160010160006101000a81548160ff021916908315150217905550505050565b6000818154811061015157600080fd5b9060005260206000209060020201600091509050806000018054610174906106c6565b80601f01602080910402602001604051908101604052809291908181526020018280546101a0906106c6565b80156101ed5780601f106101c2576101008083540402835291602001916101ed565b820191906000526020600020905b8154815290600101906020018083116101d057829003601f168201915b5050505050908060010160009054906101000a900460ff16905082565b6102126102f3565b6000828154811061022657610225610975565b5b906000526020600020906002020160405180604001604052908160008201805461024f906106c6565b80601f016020809104026020016040519081016040528092919081815260200182805461027b906106c6565b80156102c85780601f1061029d576101008083540402835291602001916102c8565b820191906000526020600020905b8154815290600101906020018083116102ab57829003601f168201915b505050505081526020016001820160009054906101000a900460ff1615151515815250509050919050565b6040518060400160405280606081526020016000151581525090565b6000604051905090565b600080fd5b600080fd5b600080fd5b600080fd5b6000601f19601f8301169050919050565b7f4e487b7100000000000000000000000000000000000000000000000000000000600052604160045260246000fd5b6103768261032d565b810181811067ffffffffffffffff821117156103955761039461033e565b5b80604052505050565b60006103a861030f565b90506103b4828261036d565b919050565b600067ffffffffffffffff8211156103d4576103d361033e565b5b6103dd8261032d565b9050602081019050919050565b82818337600083830152505050565b600061040c610407846103b9565b61039e565b90508281526020810184848401111561042857610427610328565b5b6104338482856103ea565b509392505050565b600082601f8301126104505761044f610323565b5b81356104608482602086016103f9565b91505092915050565b60006020828403121561047f5761047e610319565b5b600082013567ffffffffffffffff81111561049d5761049c61031e565b5b6104a98482850161043b565b91505092915050565b6000819050919050565b6104c5816104b2565b81146104d057600080fd5b50565b6000813590506104e2816104bc565b92915050565b6000602082840312156104fe576104fd610319565b5b600061050c848285016104d3565b91505092915050565b600081519050919050565b600082825260208201905092915050565b60005b8381101561054f578082015181840152602081019050610534565b60008484015250505050565b600061056682610515565b6105708185610520565b9350610580818560208601610531565b6105898161032d565b840191505092915050565b60008115159050919050565b6105a981610594565b82525050565b600060408201905081810360008301526105c9818561055b565b90506105d860208301846105a0565b9392505050565b600082825260208201905092915050565b60006105fb82610515565b61060581856105df565b9350610615818560208601610531565b61061e8161032d565b840191505092915050565b61063281610594565b82525050565b6000604083016000830151848203600086015261065582826105f0565b915050602083015161066a6020860182610629565b508091505092915050565b6000602082019050818103600083015261068f8184610638565b905092915050565b7f4e487b7100000000000000000000000000000000000000000000000000000000600052602260045260246000fd5b600060028204905060018216806106de57607f821691505b6020821081036106f1576106f0610697565b5b50919050565b60008190508160005260206000209050919050565b60006020601f8301049050919050565b600082821b905092915050565b6000600883026107597fffffffffffffffffffffffffffffffffffffffffffffffffffffffffffffffff8261071c565b610763868361071c565b95508019841693508086168417925050509392505050565b6000819050919050565b60006107a061079b610796846104b2565b61077b565b6104b2565b9050919050565b6000819050919050565b6107ba83610785565b6107ce6107c6826107a7565b848454610729565b825550505050565b600090565b6107e36107d6565b6107ee8184846107b1565b505050565b5b81811015610812576108076000826107db565b6001810190506107f4565b5050565b601f82111561085757610828816106f7565b6108318461070c565b81016020851015610840578190505b61085461084c8561070c565b8301826107f3565b50505b505050565b600082821c905092915050565b600061087a6000198460080261085c565b1980831691505092915050565b60006108938383610869565b9150826002028217905092915050565b6108ac82610515565b67ffffffffffffffff8111156108c5576108c461033e565b5b6108cf82546106c6565b6108da828285610816565b600060209050601f83116001811461090d57600084156108fb578287015190505b6109058582610887565b86555061096d565b601f19841661091b866106f7565b60005b828110156109435784890151825560018201915060208501945060208101905061091e565b86831015610960578489015161095c601f891682610869565b8355505b6001600288020188555050505b505050505050565b7f4e487b7100000000000000000000000000000000000000000000000000000000600052603260045260246000fdfea2646970667358221220791c0f7e7171846603a6ca86ec209ac4bab3bc403ae483e8aa1f4dfdc24af65e64736f6c63430008180033",
  "linkReferences": {},
  "deployedLinkReferences": {}
}